:1000000034020010CD000000C1000000C300000059
:1000100000000000000000000000000000000000E0
:10002000000000000000000000000000C50000000B
:100030000000000000000000C7000000C900000030
:10004000CB000000CB00000000000000CB0000004F
:10005000CB000000CB00000000000000000000000A
:10006000CB000000CB000000D9080000CB0000004E
:10007000CB000000CB00000000000000CB0000001F
:100080000000000000000000000000000000000070
:100090000000000000000000000000000000000060
:1000A000CB000000CB000000CB000000CB00000024
:1000B000CB000000CB000000CB000000CB00000014
:1000C000FEE7FEE7FEE7FEE7FEE7FEE708B500F025
:1000D00081FD0022094B0A49D3188B4204D20949F9
:1000E000895804321960F5E7074B084A934202D257
:1000F000002204C3F9E700F0B5F9FEE700000010A4
:100100000C000010580E00000C000010340200100B
:1001100000000000000000000000000000000000DF
:1001200000000000000000000000000000000000CF
:1001300000000000000000000000000000000000BF
:1001400000000000000000000000000000000000AF
:10015000000000000000000000000000000000009F
:10016000000000000000000000000000000000008F
:10017000000000000000000000000000000000007F
:10018000000000000000000000000000000000006F
:10019000000000000000000000000000000000005F
:1001A000000000000000000000000000000000004F
:1001B000000000000000000000000000000000003F
:1001C000000000000000000000000000000000002F
:1001D000000000000000000000000000000000001F
:1001E000000000000000000000000000000000000F
:1001F00000000000000000000000000000000000FF
:1002000000000000000000000000000000000000EE
:1002100000000000000000000000000000000000DE
:1002200000000000000000000000000000000000CE
:1002300000000000000000000000000000000000BE
:1002400000000000000000000000000000000000AE
:10025000000000000000000000000000000000009E
:10026000000000000000000000000000000000008E
:10027000000000000000000000000000000000007E
:10028000000000000000000000000000000000006E
:10029000000000000000000000000000000000005E
:1002A000000000000000000000000000000000004E
:1002B000000000000000000000000000000000003E
:1002C000000000000000000000000000000000002E
:1002D000000000000000000000000000000000001E
:1002E000000000000000000000000000000000000E
:1002F0000000000000000000000000007073694E64
:1003000010B580240A4BA402191DCA6F2243CA6784
:100310008E21402489005A58A2435A508023032238
:10032000DB051A60A73258609A60553A9A6010BD92
:100330000080044010B50E4B1B68002B09DDA02087
:100340008A211024000689014258013B2243425071
:10035000F3E7084B1B68002B09DDA020882110243F
:10036000000689014258013B22434250F3E710BD89
:10037000000000100400001080211A4A4900D36FC9
:1003800010B50B43D367184BFF2801D1174A00E083
:10039000174A1A6080221749920099501649043270
:1003A00099500122C0218024524289005A50640190
:1003B00004315C5004315A50C322104992009950C4
:1003C0000121F532FF3299500D4A491899509A8807
:1003D00002318A439A800B4B000618430A4B58613E
:1003E00010BDC046048004400040005001020200DD
:1003F000050202003F4B4C00B8494C0001100000C0
:1004000004050000FFFFFF0000C00040F8B5104BDE
:10041000104A196C9142FAD8196C0F4A9142FBD9D3
:10042000A02488231026802524069B01E650AD01D8
:1004300063590A4F3343635101235B42BB61FFF7AA
:1004400079FF074BBB616359B3436351F8BDC046A5
:100450000040005058474C00E703000000C0004037
:10046000FFFFFF048020F0B540018DB0FFF748FF8B
:100470004020D149D14BCA6F10240243CA67596842
:10048000CF4AA0200A4080215A605A68C9000A4316
:1004900028215A60CB4A1F1C51640831D1629161F6
:1004A0005161D16080210006890142582243C64C27
:1004B00042508423A0229B011206D3581B0709D463
:1004C00080204002FFF71CFF3923C048C049036069
:1004D000C04B9847013CFFF72DFF002CE9D1A0212C
:1004E00080221020090692018B58BB4E8343E120E5
:1004F0008B50400200F0A2F9B84BB948336000F0CD
:10050000FBF94122E02352425B00F250B54800F073
:1005100051FBB54800F04EFBB44800F04BFB3623CE
:10052000AB4CAA4D211C2B60281CAA4B9847226873
:100530006168AF4800F03EFB3723211C2B60281C6C
:10054000A44B9847FF226368AA48190A11401A4031
:10055000236800F02FFB3A23281C2B60211C9D4BA5
:100560009847E368A44800930ECC00F023FBA34B0C
:10057000A348196800F01EFBA248A34900F01AFB2B
:1005800002960124201CA14EFFF7F6FE6420356C74
:1005900000F0D8F9336C9E485D1B0A235D43211C93
:1005A0002A1C00F007FBFA239B009D4206D8022C70
:1005B00001D00224E6E79D42E3D10134642000F03B
:1005C000C1F9211C934800F0F5FA642000F0BAF953
:1005D0000123029A5B42136004331D1B023B191C6A
:1005E0000993A940073306AD6B6034330A931C3B73
:1005F000AB60E1231B017848039106910B93012C1A
:100600001CD1E021490043581A1C80239A434250D0
:10061000002303223C67FF207B677C673A647B648E
:100620007C64BC67FFF7A8FE7B4800F065F91D22DB
:100630007A4B1A607A4B133A1A6002E00220FFF7F5
:100640009BFE784B029A93618023AA22DB059A6075
:10065000553A9A60A022842312069B01D158039830
:1006600001420DD0D1586868084209D0D358AA6811
:100670001A4205D0642000F065F9FFF7C7FEE3E7F2
:10068000E0224021029B52009B580B4302998B5061
:1006900000230393039B002B09D1326C624B9A42D7
:1006A0000CD88023AA22DB059A60553A9A60002371
:1006B000181C326C5D4991425841039000278423F5
:1006C000A0229B011206D458BB000493EB5802935E
:1006D0001C4003D00137032FF1D1DBE78023AA228E
:1006E000DB059A60553A9A60142104AB049A5B18B2
:1006F0009B5805939C4203D2FFF788FE0134F3E731
:10070000002F10D000228423A0219B010906CB5882
:1007100002990B40591E8B415B421A40444B0132F7
:100720009A42F0DDD6E7434B1F608422A02192015C
:1007300009068A5802990A4204D1FA2219689200DD
:100740009142F2D90422B38813430022B380A0213E
:10075000842309069B01C858029C20420AD1C9582B
:10076000012319404B424B415B421A40304B01324E
:100770009A42ECDD0123029A13438422A0219201C4
:1007800009068A581A42F8D004222B4B3364B388E6
:1007900093430022B3808423A0219B010906CB58F8
:1007A00002990B40591E8B415B421A40204B01328B
:1007B0009A42F0DD012782E7048004400080044073
:1007C000FFFBFFFF00400440805101001C000010AF
:1007D0000C000010F11FFF1F00C000400400FFFFCD
:1007E000307500005C0D0000780D0000950D0000D4
:1007F000AA0D0000BF0D0000DC0D00000800001075
:10080000050E00001F0E00007073694E004000507E
:100810002A0E00003E0E00008813000000000010A9
:1008200004000010FFFFFF040F2700001027000046
:10083000E703000030000010D2494C00F7B51E4C11
:100840000122231C082680211C4F943300901A603B
:100850003B1DDE67221DD36FC9010B43D36763685D
:10086000174DB343636063680099334363600423A7
:1008700014482B6000F0E0F9231CFF22F03301380C
:1008800028621A601868296A1B680130DB430193EB
:100890000C4B01315843009BF434594300F0CCF920
:1008A000019B0122181882231B012060AB603E606F
:1008B0002B6813432B60F7BD0080044000E100E08B
:1008C0000040064070383900024B9A685207FBD549
:1008D000D8617047004006400122054BD96811429B
:1008E00004D0DA60034A1368013313607047C046CE
:1008F000004000403000001030B5802480250D4BB2
:10090000E400191DCA6F2243CA675968A943596098
:100910005A6880212A435A600022074B09061A6050
:10092000064B18601A680A431A6001229A60044B49
:100930001C6030BD008004403000001000400040CA
:1009400000E100E00022034B1A601A688242FCD3E7
:100950007047C0463000001008B5002805D0036875
:10096000197003685A1C026002E0081C00F02EF99E
:1009700008BDF7B5141C0090019120270A1C002C1B
:100980000FDD0199501A1178002901D00132F8E7E2
:10099000A04201DA241A00E00C1C20279A0700D597
:1009A00010370025DB070CD4251C002D05DD009831
:1009B000391CFFF7D1FF013DF7E7E543ED1725406F
:1009C000641B2E1C019B5B1B995D002904D00098C1
:1009D000FFF7C2FF0136F5E7251C002D05DD009865
:1009E000391CFFF7B9FF013DF7E7E043C0170440AA
:1009F0003019FEBDF0B587B0171C061C0C1C03AAED
:100A0000002908D1302351701370111C0D9B0C9AD2
:100A1000FFF7AFFF40E0002101918B4206D00A2F83
:100A200004D18C4202DA01236442019300230F2592
:100A3000D37202ABED18002C11D0201C391C00F031
:100A400081F9092902DD0E9B3A3BC9183031013D7D
:100A50002970201C391C00F0EFF8041CEBE7019B07
:100A6000002B12D00C9B002B0BD00D9B9B0708D5A5
:100A7000301C2D21FFF770FF0C9B0134013B0C93C0
:100A800003E02D230024013D2B70301C291C0C9AFF
:100A90000D9BFFF76EFF201807B0F0BDF0B5061CE8
:100AA0000D1C002489B005922B78002B05D0252B36
:100AB00073D169786A1C002905D1002E74D00022F8
:100AC00033681A7070E0252966D000232D2901D1E2
:100AD000AA1C0133151C2A78302A03D102220135C1
:100AE0001343F8E700222978081C3038C7B2092FD1
:100AF00004D80A214A4301351218F4E7732908D1B2
:100B00000599081D059008682949002840D0011C56
:100B10003EE064290ED1059901936123081D0092DE
:100B200005900A22301C02930968603BFFF762FFC0
:100B3000241837E0782906D105990193081D0590FE
:100B40000092612307E058290AD1019341230599B6
:100B50000092081D05900293301C096810220BE0DA
:100B600075290BD1059901936123081D0092059009
:100B70000A22301C029309680023D7E7632911D1A8
:100B80000598011D0068059107A9087000204870AC
:100B9000301CFFF7EEFECBE7151C2978301CFFF761
:100BA000DBFE013401357FE7201C09B0F0BDC046F3
:100BB0004E0E00000FB407B504AA02CA002001922D
:100BC000FFF76CFF03B008BC04B0184708B5FFF787
:100BD0007BFE08BD14491548CA6F10B50243CA67A9
:100BE0000022134B1A6401325A64596C104AC90727
:100BF000FBD524218E208024916080001158A143D0
:100C000011500121D8680A4A0842FAD0032010671F
:100C100051675A6FD207FCD50222054B9A67002212
:100C2000044B1A6110BDC0460480044080000400DB
:100C30000080044000000440002243088B4274D32B
:100C400003098B425FD3030A8B4244D3030B8B42CD
:100C500028D3030C8B420DD3FF22090212BA030CD6
:100C60008B4202D31212090265D0030B8B4219D3B7
:100C700000E0090AC30B8B4201D3CB03C01A5241D7
:100C8000830B8B4201D38B03C01A5241430B8B421F
:100C900001D34B03C01A5241030B8B4201D30B0308
:100CA000C01A5241C30A8B4201D3CB02C01A52412F
:100CB000830A8B4201D38B02C01A5241430A8B42F2
:100CC00001D34B02C01A5241030A8B4201D30B02DB
:100CD000C01A5241CDD2C3098B4201D3CB01C01AF5
:100CE000524183098B4201D38B01C01A52414309FF
:100CF0008B4201D34B01C01A524103098B4201D3ED
:100D00000B01C01A5241C3088B4201D3CB00C01A59
:100D1000524183088B4201D38B00C01A52414308D1
:100D20008B4201D34B00C01A5241411A00D20146F6
:100D3000524110467047FFE701B5002000F00CF863
:100D400002BDC0460029F7D003B5FFF775FF0EBC02
:100D50004243891A1847C0467047C0460D0A0D0A1B
:100D60004850353036354120436C6F636B205570E9
:100D700067726164650D0A002863292032303136BC
:100D800020506F756C2D48656E6E696E67204B61E3
:100D90006D700D0A004265657277617265206C693D
:100DA00063656E7365642E0D0A000D0A50617274DE
:100DB0002049443A20257820282578290D0A004228
:100DC0006F6F746C6F61646572205665723A20258E
:100DD000642E256420282578290D0A0055494420D1
:100DE0003D205B3078253038782C2030782530381D
:100DF000782C203078253038782C20307825303801
:100E0000785D0D0A0053797374656D436F726543A5
:100E10006C6F636B203D20256420487A0D0A0043E7
:100E2000525020307825780D0A00526174652050A8
:100E3000494F305F2564203D2025750D0A0055730C
:100E4000696E672050494F305F25640D0A00286E97
:080E5000756C6C290000000024
:0C0E5800B10000001100000080C3C901BF
:00000001FF
